:1000000010C02AC029C028C027C026C025C024C0CF
:1000100023C05CC121C020C01FC01EC01DC01CC0A9
:100020001BC011241FBECFE5D2E0DEBFCDBF10E064
:10003000A0E6B0E0E8E3F5E002C005900D92A2363C
:10004000B107D9F720E0A2E6B0E001C01D92A038C8
:10005000B207E1F793D16EC2D3CF87706170417060
:10006000217007700098379A203011F0339A01C040
:10007000339837B13F7323B1403011F0206101C094
:100080002F7E603009F002C0287F00C023B98F9313
:100090003F930F9391E0990F8A95E9F760E040E074
:1000A000D9D00F913F918F91307C382B37B936B131
:1000B000387F302B306636B90895349A089585B16B
:1000C000089588950895E6B47B4619001F930F9311
:1000D000EF92DF92CF92BF92AF929F928F92D12EEA
:1000E000C02EB32EA22E10E005E031E0EA94F92FE5
:1000F000E82F9080B52FA42F1E1541F42DE0921605
:1001000010F03C9309C09394908206C0911419F0AA
:100110009A94908201C01C928C90F72FE62F9080C9
:10012000831661F426E9921608F011C09394908228
:10013000921668F0BD2DAC2D3C9309C0931630F09B
:1001400020E5921618F4BB2DAA2D3C93108213952E
:10015000830F911D630F711D430F511DA30EB11C21
:10016000C30ED11C101719F68F909F90AF90BF90BF
:10017000CF90DF90EF900F911F91089576E060E0AF
:10018000F0E0E6EC4591841718F463956717D1F712
:1001900090E0862F089510012002300321123113C0
:1001A000322343344224813049F0823051F083308D
:1001B00059F0843061F090E081E00BC090E082E083
:1001C00008C090E880E005C090E480E002C091E0C3
:1001D00080E0089584E08F93E6DF8F939F9360E043
:1001E00040E038D09F918F9160E041E033D08F9113
:1001F0008A958CF708958F70E6E9F1E0E80FF11D1C
:1002000074917F93E7DF7F91372F307F3295272FCF
:100210002F7084E0831729F0821709F018C061E07D
:1002200001C060E03F932F938F936F9340E061E0B4
:10023000BADF10D06F918F912F913F9141E03F93A2
:100240002F938F93B0DF06D08F912F913F918A9596
:100250000CF708958F709F7F61704170413019F0E5
:100260003AB327B302C03BB328B3613029F090956D
:1002700080952823392302C0282B392B413019F0CF
:100280003ABB27BB02C03BBB28BB08954770217017
:1002900066BF4F932F930ED02F914F9183B7807FDE
:1002A000842B83BF89B7213011F4826001C08D7F18
:1002B00089BF0895837060B76C736260803021F0ED
:1002C0008295880F880F682B60BF08951F920F9248
:1002D0000FB60F9211242F933F934F935F936F9319
:1002E0007F938F939F93AF93BF93EF93FF938091EF
:1002F0007C0090917D00A0917E00B0917F000196DE
:10030000A11DB11D80937C0090937D00A0937E0081
:10031000B0937F001092600060917C0070917D002E
:1003200080917E0090917F0025E030E040E050E039
:10033000DFD0672B682B692B29F480916100811134
:1003400003C003C080E001C081E0882331F0B5DE46
:10035000B6DE80937B0010926100FF91EF91BF9118
:10036000AF919F918F917F916F915F914F913F914D
:100370002F910F900FBE0F901F90189507E020E06F
:1003800041E060E085E069DE40E061E084E090E02B
:1003900061DF21E043E06CE781E078DF1BDF7894E8
:1003A000BB24B394F12CC12CD12C99249A94C0E095
:1003B000A12CD0E0809160008111FCCF60917C0085
:1003C00070917D0080917E0090917F0028EE33E057
:1003D00040E050E08DD0672B682B692B21F481E041
:1003E000A11080E0A82EDC3088F42D2F30E0892D7C
:1003F000092C000C990B8217930731F0DB3011F4B4
:10040000A11002C08D2FF7DEDF5F04C08CE08C0FDF
:10041000F2DED0E0BB2081F08FEFC81AD80A88EC5A
:10042000C816D10459F540E060E084E090E012DFA6
:10043000B12CC12CD12C22C083E0F81205C087EE6C
:10044000C81683E0D80638F082E08F1540F084E6C5
:10045000C816D10420F48FEFC81AD80A0FC082E062
:100460008F1510F0F39401C0F12C40E061E084E0BE
:1004700090E0F0DEBB24B394C12CD12C81E08093BA
:10048000600080916100811195CF80917B0076DEC4
:10049000E82E07E610E022E630E04CE650E061E7A7
:1004A00070E086E790E012DE80E090E08530910514
:1004B000DCF4FC01E959FF4F2081211106C0FC0149
:1004C000EE59FF4F2081222369F0FC01E959FF4FCB
:1004D0001082FC01EE59FF4F1082982ECF5FC3307F
:1004E00009F4C0E00196E2CF81E08093610062CF21
:1004F000A1E21A2EAA1BBB1BFD010DC0AA1FBB1F28
:10050000EE1FFF1FA217B307E407F50720F0A21B99
:10051000B30BE40BF50B661F771F881F991F1A9406
:1005200069F760957095809590959B01AC01BD0130
:08053000CF010895F894FFCFFC
:020538000101BF
:00000001FF
