:1000000010C022C021C020C01FC01EC01DC01CC007
:100010001BC096C019C018C017C016C015C014C0A8
:1000200013C011241FBECFE5D2E0DEBFCDBF10E06C
:10003000A0E6B0E0E6EFF2E002C005900D92A8362F
:10004000B107D9F787D055C1DBCF100120023003AB
:1000500021123113322343344224813049F082305B
:1000600051F0833059F0843061F090E081E00BC0B2
:1000700090E082E008C090E880E005C090E480E075
:1000800002C091E080E0089584E08F93E6DF8F93D3
:100090009F9360E040E038D09F918F9160E041E015
:1000A00033D08F918A958CF708958F70EAE4F0E051
:1000B000E80FF11D74917F93E7DF7F91372F307F39
:1000C0003295272F2F7084E0831729F0821709F0CB
:1000D00018C061E001C060E03F932F938F936F934E
:1000E00040E061E0BADF10D06F918F912F913F9186
:1000F00041E03F932F938F93B0DF06D08F912F91E4
:100100003F918A950CF708958F709F7F61704170C1
:10011000413019F03AB327B302C03BB328B3613082
:1001200029F0909580952823392302C0282B392B5C
:10013000413019F03ABB27BB02C03BBB28BB089536
:100140001F920F920FB60F9211240F900FBE0F90B7
:100150001F901895CF93DF93CDB7DEB76B970FB68F
:10016000F894DEBF0FBECDBFCE0101965FD0CE01A9
:10017000429637D0AE014E5E5F4FBE016F5F7F4F3C
:10018000CE0144962BD0BE016C5E7F4FCE014296CD
:100190002CD080E090E06B960FB6F894DEBF0FBED7
:1001A000CDBFDF91CF9108950895CF93DF93EC01F8
:1001B00060E08A819B814FD08A819B815CD0DF91F6
:1001C000CF910895FC0184E690E09183808373834E
:1001D0006283558344833783268308959C01F2DF2D
:1001E0000895FC011182108208950F931F93CF93FD
:1001F000DF938C01EB01DC018D919C91009739F02C
:10020000DC01ED91FC910280F381E02D0995E881FC
:10021000F9810190F081E02DCE010995F801D1839B
:10022000C083DF91CF911F910F910895FC01108A37
:10023000178620E030E02F3031053CF4FC01E20F5E
:10024000F31F10822F5F3F4FF6CF089581E06F308C
:1002500008F080E008951F93CF93DF93EC01162FF1
:10026000F5DF882321F0C10FD11D81E08883DF9164
:10027000CF911F910895CF93DF93EC0105DF8F8518
:100280009889FE01E80FF91F208121110EDF8F856B
:10029000988901966FE070E005D0988B8F87DF9189
:1002A000CF91089597FB072E16F4009406D077FDA2
:1002B00008D00BD007FC05D03EF4909581959F4F58
:1002C0000895709561957F4F0895AA1BBB1B51E15E
:1002D00007C0AA1FBB1FA617B70710F0A61BB70BB6
:1002E000881F991F5A95A9F780959095BC01CD015B
:0602F0000895F894FFCF11
:0802F60000000000D500D40057
:00000001FF
